:100000004FC000006BC0000069C0000067C0000066
:1000100065C0000063C0000061C000005FC0000058
:100020005DC000005BC000000C94500D57C0000084
:1000300055C0000053C0000051C000004FC0000078
:100040004DC000004BC000000C948C0D47C0000058
:1000500045C0000043C0000041C000003FC0000098
:100060003DC000003BC0000039C0000037C00000A8
:1000700035C0000033C0000031C000002FC00000B8
:100080002DC000002BC0000029C00000FD020A03A3
:100090001703240331033E034B0358036503720324
:1000A00011241FBECFEFD0E1DEBFCDBF13E0A0E033
:1000B000B1E0E2E0F0E200E00BBF02C007900D9279
:1000C000A23DB107D9F728E0A2EDB3E001C01D922F
:1000D000A230B207E1F768D60C94FF0F91CF0F93CF
:1000E0001F93CF93DF930E94E10F8C010E94E10FD9
:1000F0006FE270E00E94310FEC01C80167E070E030
:100100000E94310F9C01220F331F220F331F220F39
:10011000331FE6EDF3E033832283215F3F4F3783C4
:100120002683CE01CF9695838483C25BDF4FD18730
:10013000C087DF91CF911F910F91089520911E01EB
:1001400030911F018091D8039091D9032817390766
:1001500024F120912201309123018091DC039091C0
:10016000DD0382179307E4F04091240150912501AB
:100170002091DA033091DB0342175307DCF06091E2
:100180002001709121018091DE039091DF03861799
:1001900097074CF081E090E0089580E090E00895AA
:1001A00080E090E0089581E090E02417350784F422
:1001B00080E0089581E090E040912001509121017C
:1001C0002091DE033091DF03421753070CF480E0E7
:1001D00008950F931F93CF93DF9383E0FED59C0187
:1001E00036952795A5E2B9E40E94690FEC01D695F2
:1001F000C79584E0F2D596958795969587959695BF
:100200008795C431D105E4F420911E0130911F017E
:1002100012161306ACF46091E0037091E1034CEF09
:100220005FEF461B570BEEE1F1E0240F351F3183E2
:10023000208324813581420F531F558344831FC07F
:10024000E397ECF060912201709123016034710515
:10025000B4F42091E0033091E10344E050E0FA016E
:10026000E21BF30B9F01EEE1F1E040815181420F6F
:10027000531F51834083260F371F358324838B35CB
:100280009105F4F040912401509125014E3751051C
:10029000BCF48091E0039091E10324E030E0B901E7
:1002A000681B790BCB01EEE1F1E022813381260F4F
:1002B000371F33832283840F951F978386831DC046
:1002C0004497DCF4809120019091210180349105C4
:1002D000A4F04091E0035091E1032CEF3FEF241B89
:1002E000350BEEE1F1E0820F931F938382838681C9
:1002F0009781280F391F37832683EEE1F1E0C28111
:10030000D381868197818C179D076CF08F01BE0188
:10031000F801808191818BD72196F80186819781A0
:100320008C179D07A4F7DF91CF911F910F9108952E
:10033000CF93DF934EDF2091EA033091EB03253614
:1003400031052CF01092EB031092EA0326C0C9018C
:1003500064E170E00E94310F892BC9F4E6EDF3E00F
:10036000808191810197918380834091EC0350912A
:10037000ED034F5F5F4F5093ED034093EC03892BE8
:1003800031F481E090E09093E9038093E8032F5FDC
:100390003F4F3093EB032093EA03D0DE892B39F0F3
:1003A0009EDE85E090E09093D7038093D60360E1D2
:1003B00070E080E090E00BD6C6EDD3E088819981B3
:1003C0000E94B20C288539854E815F816C817D81C8
:1003D0008A819B810E94C40ADF91CF9108957FDEBC
:1003E00085E090E09093D7038093D6030895CF9350
:1003F000DF9386E0F2D4EC01E0E1F1E02681378181
:100400004481558162817381808191810E943C0A7F
:10041000E8E1F1E0448155816281738180819181BD
:100420000E94C60BC852D140C739D105ECF02091CB
:10043000E2033091E3034091E0035091E1038CE04B
:1004400090E0841B950B281739073CF42F5F3F4F32
:100450003093E3032093E20320C081E090E0909387
:10046000E9038093E80319C02091E2033091E3038C
:100470008091E0039091E1030C97821793073CF47D
:10048000215031093093E3032093E20306C081E059
:1004900090E09093E9038093E8038091E2039091C8
:1004A000E303992334F1E0E1F1E09C012F5E3F4F3B
:1004B00031832083275031093383228321E130E0C7
:1004C000281B390B3583248325E330E0281B390BA7
:1004D00037832683E8E1F1E09C01235F3F4F3183BE
:1004E000208320E230E0A901481B590B538342834B
:1004F00027C0E0E1F1E09C012F5E3F4F3183208374
:100500002AE030E0281B390B3383228321E130E0DD
:10051000281B390B358324839C012B5C3F4F378389
:100520002683E8E1F1E02DE030E0281B390B318330
:10053000208320E230E0A901481B590B53834283FA
:10054000DF91CF91089553DFE0E1F1E0268137811B
:1005500044815581628173818081918105D7E8E171
:10056000F1E04481558162817381808191810C9495
:10057000F40A0895E2EDF3E0828193810197938379
:100580008283E4E0F1E0208131812150310931831F
:100590002083992394F42091E0033091E1038CE3CC
:1005A00090E0821B930B9093D5038093D4038FE349
:1005B00090E09093050180930401E2EDF3E0228145
:1005C0003381608171814CE350E08CE390E0CCD6C4
:1005D000E4E0F1E022813381608171814CE350E0FD
:1005E0008CE390E0C1C608958A30910508F086C07A
:1005F000FC01EA5BFF4F0C94600FE8E0F1E08081C2
:100600009181049791838083848195810497958358
:1006100084830895E8E0F1E08081918103979183DC
:100620008083848195810397958384830895E8E08E
:10063000F1E080819181029791838083848195810B
:100640000297958384830895E8E0F1E080819181A9
:100650000197918380838481958101979583848319
:100660000895E8E0F1E08081918101979183808392
:10067000848195810197958384830895E8E0F1E072
:1006800080819181019691838083848195810197F6
:10069000958384830895E8E0F1E08081918101965B
:1006A00091838083848195810197958384830895C4
:1006B000E8E0F1E0808191810296918380838481DA
:1006C00095810297958384830895E8E0F1E0808125
:1006D000918103969183808384819581039795838B
:1006E00084830895E8E0F1E080819181049691830C
:1006F00080838481958104979583848308952091D4
:100700000A0130910B018091D4039091D5032817F1
:100710003907BCF020910E0130910F018091040146
:10072000909105018217930764F08091E403909102
:10073000E503892B31F481E090E09093E903809305
:10074000E80308950F931F93CF93DF9382E045D37F
:1007500045976CF08091E6039091E703892B39F47B
:1007600081E090E09093E5038093E40306C08091DC
:10077000E4039091E5030197D1F48091E603909111
:10078000E70332DF8091E6039091E70301968A3018
:10079000910529F09093E7038093E60308C0109237
:1007A000E7031092E6031092E5031092E403E8E0F9
:1007B000F1E0C281D381868197818C179D076CF00F
:1007C0008F01BE01F8018081918131D52196F80118
:1007D000868197818C179D07A4F7CCDE90DFDF918F
:1007E000CF911F910F910895CF93DF93CDB7DEB7CF
:1007F0002A970FB6F894DEBF0FBECDBFDE0111966B
:100800008AE0FD0111928A95E9F7EEEEF3E028EF18
:1008100033E0819191918D939D93E217F307C9F78E
:100820004091EC035091ED038091EE039091EF0322
:10083000841795076CF0E0EFF3E081E090E0219100
:100840003191241735073CF5843091051CF017C011
:1008500080E090E0FC01EE0FFF1FA1E0B0E0AC0FE4
:10086000BD1FAE0FBF1FE051FC4F9C012F5F3F4FDC
:100870006D917D916193719324303105BCF3880FA4
:10088000991FFC01E251FC4F518340831092ED030C
:100890001092EC0304C001968530910581F62A96EA
:1008A0000FB6F894DEBF0FBECDBFDF91CF91089594
:1008B000E8E0F1E089E390E0918380838AE090E0D2
:1008C000938382838BE390E0958384838CE090E034
:1008D00097838683E2EDF3E0118210821382128205
:1008E000E4E0F1E0118210828FE390E09383828351
:1008F00085E090E09093D7038093D6031092EB03AA
:100900001092EA031092E9031092E8031092E703B1
:100910001092E6031092E5031092E4031092E303B1
:100920001092E203089538D345E053E062E070E0AE
:1009300081E090E08FD346E153E065E070E084E031
:1009400090E088D341E253E065E070E085E090E01C
:1009500081D34BE253E065E070E086E090E07AD32B
:1009600084E090E09093F9038093F80381E090E0B5
:10097000909327018093260144EA53E063E070E0FE
:1009800084E090E067C3089507D32FE330E040E2AE
:1009900050E060E070E080E290E0E6D42FE330E0E9
:1009A00040E450E06FE370E080E090E0DDD4C0DC34
:1009B000C9DEC9DD8091E8039091E9030197B1F4A4
:1009C00062D2EAD240E353E062E070E084E090E07B
:1009D00041D32FEF8FEF96E8215080409040E1F710
:1009E00000C0000065DF00DF9ECF08952FEF8FE18C
:1009F00091E0215080409040E1F700C00000C4CF5A
:100A000084E0EBD1969587959695879596958795F1
:100A100029E939E541E0215030404040E1F700004C
:100A20008B35910530F12091F8033091F903263090
:100A30003105F8F4C90101969093F9038093F80306
:100A400044EA53E063E070E005D38091F8039091AD
:100A5000F90348E653E063E070E00197FBD28FEFC3
:100A60009FE724E0815090402040E1F700C0000063
:100A70000895449720F58091F8039091F90385300B
:100A80009105E8F001979093F9038093F80344EA05
:100A900053E063E070E0DED28091F8039091F903B7
:100AA00048E653E063E070E00196D4D23FEF4FE7B1
:100AB00084E0315040408040E1F700C000000895DC
:100AC0006BD282E090E0909327018093260184E02E
:100AD00090E09093F9038093F80341E453E062E0DF
:100AE00070E081E090E0B6D24FE453E065E070E062
:100AF00084E090E0AFD244E553E065E070E085E04B
:100B000090E0A8D24BE553E065E070E086E090E02D
:100B1000A1D244EA53E063E070E08091F803909141
:100B2000F90398C20895CF93DF9336D283E090E023
:100B3000909327018093260187E090E09093F9033A
:100B40008093F80340E653E061E070E081E090E0DC
:100B500081D26AE070E081E090E039D2CEEED3E05D
:100B600088819981FFD64AE653E061E070E082E037
:100B700090E070D26AE070E082E090E028D28A8152
:100B80009B81F0D644E753E061E070E083E090E0C1
:100B900061D26AE070E083E090E019D28C819D819F
:100BA000E1D64EE753E061E070E084E090E052D29D
:100BB0006AE070E084E090E00AD28E819F81D2D614
:100BC00048E853E061E070E085E090E043D26AE0FD
:100BD00070E085E090E0FBD188859985C3D642E935
:100BE00053E061E070E086E090E034D2DF91CF9195
:100BF000089580B38E3F09F0D6C08091F80390919C
:100C0000F9038430910599F4209126013091270150
:100C10002130310511F53DD1B7DE2FEF8FEF9CE28A
:100C2000215080409040E1F700C0000008958530D9
:100C3000910599F420912601309127012130310549
:100C400011F516D13DDF2FEF8FEF9CE22150804050
:100C50009040E1F700C0000008958630910599F4B6
:100C6000209126013091270121303105A9F500D1CD
:100C70005ADF2FEF8FEF9CE2215080409040E1F748
:100C800000C0000008958430910531F520912601BF
:100C9000309127012230310509F049C07DD146EA63
:100CA00053E063E070E083E090E0D4D141EB53E0A7
:100CB00065E070E084E090E0CDD11092E103109205
:100CC000E0032FEF8FEF96E8215080409040E1F74E
:100CD00000C0000028CE08958530910541F520918F
:100CE0002601309127012230310509F049C054D145
:100CF0004AEB53E063E070E083E090E0ABD141EB7E
:100D000053E065E070E084E090E0A4D181E090E001
:100D10009093E1038093E0032FEF8FEF96E821504B
:100D200080409040E1F700C00000FDCD089586307E
:100D3000910531F58091260190912701029799F54F
:100D40002BD147EC53E063E070E083E090E082D188
:100D500041EB53E065E070E084E090E07BD182E01D
:100D600090E09093E1038093E0032FEF8FEF96E8FC
:100D7000215080409040E1F700C00000D4CD08959C
:100D8000079789F48091260190912701039759F4E0
:100D900003D1C9DD2FEF8FEF9CE2215080409040BE
:100DA000E1F700C00000089559D619DBBCDDC7E0AB
:100DB000D0E026DE1EDF8091260190912701039767
:100DC000C1F7D093F903C093F803F3CF16B817B85F
:100DD00080E888B983EC86B9089593EC96B980646D
:100DE00087B9369A349BFECF24B185B116B890E00E
:100DF000982F8827820F911D08951816190654F40C
:100E000020E030E045E04A95F1F72F5F3F4F28178B
:100E10003907C1F70895EF92FF920F931F93CF9375
:100E2000DF937B0128EE33E0AC01429FC001439F7A
:100E3000900D529F900D11240E941D0F6115710598
:100E400081F08B01C5E6D0E0988190619883C7015D
:100E5000D4DF98819F7E9883C701CFDF01501109AD
:100E600099F7DF91CF911F910F91FF90EF90089527
:100E700068EC70E083E290E0CEDF66E870E083E249
:100E800090E0C9CF08956BE871E08EE190E0C3CFA8
:100E9000089565E670E083E290E0BDDF6AE570E00A
:100EA0008EE190E0B8DF60E570E083E290E0B3DFD0
:100EB0006CE470E08EE190E0AEDF64E470E083E229
:100EC00090E0A9DF6DE370E08EE190E0A4DF66E3DF
:100ED00070E083E290E09FDF63E370E08EE190E0FA
:100EE0009ACF08951D9A91E39A95F1F700001C9806
:100EF0001E981F9A8BBB81E38A95F1F700001D981D
:100F000008951D9A91E39A95F1F700001C981E9A96
:100F10001F988BBB81E38A95F1F700001D98089517
:100F20001D9A91E39A95F1F700001C981E9A1F9A5A
:100F30008BBB81E38A95F1F700001D9808951D9AF7
:100F400091E39A95F1F700001C9A1E981F9A8BBBAB
:100F500081E38A95F1F700001D9808951D9A91E3A9
:100F60009A95F1F700001C9A1E9A1F988BBB81E39B
:100F70008A95F1F700001D9808951D9A91E39A95BE
:100F8000F1F700001C9A1E9A1F9A8BBB81E38A9589
:100F9000F1F700001D980895CF93DF93D8EB8D2FC4
:100FA000BFDF80E4BDDFC0E480E0E7DFC150E1F7F0
:100FB000DF5FD03CA1F7DF91CF9108958FE3B0DFE1
:100FC00080ECAEDF88EBACDF80E4AACF089580939D
:100FD0000004609301088854A3DF809101088A30DF
:100FE00038F4982F990F890F880F8C5B7BCF089569
:100FF00090E00A97982F990F890F880F805C81CF16
:1010000008951F93CF93DF9390E0EC01CC0FDD1F89
:10101000CC0FDD1F8C0F9D1FEC01C857DF4F15E073
:10102000809101088A3018F4888189DF02C08881A4
:1010300095DF115021961111F3CF809101088A306C
:1010400018F480E07CDF02C080E088DFDF91CF9180
:101050001F910895CF93DF93EA018093000460937A
:101060000108B5DF8881882381F0809101088A30EA
:1010700011F480E446DF8991C4DF809101088F5F1D
:101080008093010888818111F0CFDF91CF9108957D
:10109000CF93C62F885444DFC03420F480E48C0FF3
:1010A00021DF02C08C2F2DDFCF910895EF92FF92A8
:1010B0000F931F93CF93803408F052C066230CF433
:1010C0004FC0282F269526952695982F977071F05A
:1010D000913071F0923071F0933071F0943071F082
:1010E000953071F0963071F090E80DC091E00BC032
:1010F00092E009C094E007C098E005C090E103C009
:1011000090E201C090E4C62FE62EF12C022F10E0F1
:10111000F70180E8289FE00DF11D1124EF5FFB4FE0
:101120008081892B8083822FB3DFC03468F4F8017B
:10113000F695FE2FEE27F795E795EE0DFF1DEF5F75
:10114000FB4F8081FCDE0CC0F801F695FE2FEE27E8
:10115000F795E795EE0DFF1DEF5FFB4F8081FEDEFB
:10116000CF911F910F91FF90EF900895EF92FF9212
:101170000F931F93CF93803408F053C066230CF471
:1011800050C0282F269526952695982F977071F098
:10119000913071F0923071F0933071F0943071F0C1
:1011A000953071F0963071F080E80DC081E00BC091
:1011B00082E009C084E007C088E005C080E103C088
:1011C00080E201C080E4C62FE62EF12C022F10E051
:1011D000F70190E8299FE00DF11D1124EF5FFB4F0F
:1011E0008095908189238083822F52DFC03468F4F8
:1011F000F801F695FE2FEE27F795E795EE0DFF1D0A
:10120000EF5FFB4F80819BDE0CC0F801F695FE2F4F
:10121000EE27F795E795EE0DFF1DEF5FFB4F808101
:101220009DDECF911F910F91FF90EF900895AF92A7
:10123000BF92DF92EF92FF920F931F93CF93DF93B2
:10124000803408F087C066230CF484C0D82FD6956C
:10125000D695D695982F977091F0913099F092305D
:10126000A1F09330A9F09430B1F09530B9F09630F8
:10127000C1F00F2EF3E0DF2EF02D20E815C0D12CA9
:1012800027E012C0D12C2EE00FC0D12C2CE10CC0D5
:10129000D12C28E309C0D12C20E706C0D12C20EEA8
:1012A00003C0DD24D39420ECC62F603450F5E62E25
:1012B000F12C0D2F10E0C70130E8D39F800D911D58
:1012C0001124AC014F5F5B4F5A01FA0120838D2F2F
:1012D000DFDEF501808133DE0F5F1F4F1695102F83
:1012E0000027179507950E0D1F1D0F5F1B4FF80167
:1012F000D0826C2F81E08D0FCBDEF80180811FDE64
:1013000029C0E62EF12C0D2F10E0C701F0E8DF9F79
:10131000800D911D1124AC014F5F5B4F5A01FA0102
:1013200020838D2FB5DEF501808118DE0F5F1F4F02
:101330001695102F0027179507950E0D1F1D0F5F8F
:101340001B4FF801D0826C2F81E08D0FA1DEF801D8
:10135000808104DEDF91CF911F910F91FF90EF907C
:10136000DF90BF90AF9008958F929F92AF92BF92FF
:10137000CF92DF92EF92FF920F931F93CF93DF9361
:10138000621709F447C0621718F570E0022F10E0E9
:10139000061717070CF463C0C82FD0E0C42ED12C59
:1013A000CC1ADD0A4B01E12CF12C5801A61AB70A20
:1013B000C701B50156D5862F682D8C0F77DE8FEFCC
:1013C000881A980AEC0CFD1C081519058CF747C003
:1013D00070E0022F10E0601771070CF440C0C82FB6
:1013E000D0E05E01A41AB1084B01E12CF12C680198
:1013F000C61AD70AC701B60134D5862F682D8C0FBF
:1014000055DE81E0881A9108EA0CFB1C80169106D3
:101410008CF725C0841711F1841780F4C82FD0E011
:10142000E42EF12CEC16FD06D4F0162F612F8C2F34
:101430003DDE2196EC16FD06CCF711C0C82FD0E09A
:10144000E42EF12CCE15DF0554F0162F612F8C2FD2
:101450002DDE2197CE15DF05CCF701C027DEDF9109
:10146000CF911F910F91FF90EF90DF90CF90BF90A1
:10147000AF909F908F9008958F929F92AF92BF925E
:10148000CF92DF92EF92FF920F931F93CF93DF9350
:10149000621709F447C0621718F570E0022F10E0D8
:1014A000061717070CF463C0C82FD0E0C42ED12C48
:1014B000CC1ADD0A4B01E12CF12C5801A61AB70A0F
:1014C000C701B501CED4862F682D8C0F4FDE8FEF6C
:1014D000881A980AEC0CFD1C081519058CF747C0F2
:1014E00070E0022F10E0601771070CF440C0C82FA5
:1014F000D0E05E01A41AB1084B01E12CF12C680187
:10150000C61AD70AC701B601ACD4862F682D8C0F36
:101510002DDE81E0881A9108EA0CFB1C80169106EA
:101520008CF725C0841711F1841780F4C82FD0E000
:10153000E42EF12CEC16FD06D4F0162F612F8C2F23
:1015400015DE2196EC16FD06CCF711C0C82FD0E0B1
:10155000E42EF12CCE15DF0554F0162F612F8C2FC1
:1015600005DE2197CE15DF05CCF701C0FFDDDF9149
:10157000CF911F910F91FF90EF90DF90CF90BF9090
:10158000AF909F908F900895AF92BF92CF92DF92CD
:10159000EF92FF920F931F93CF93DF93082F10E0EA
:1015A000C42ED12CC016D106A4F0A62EB12CE22E4A
:1015B000F12CE501EA14FB043CF06C2F802F76DD62
:1015C0002196EC16FD06CCF70F5F1F4FC016D10613
:1015D00084F7DF91CF911F910F91FF90EF90DF90F3
:1015E000CF90BF90AF9008952F923F924F925F920D
:1015F0006F927F928F929F92AF92BF92CF92DF9223
:10160000EF92FF920F931F93CF93DF93CDB7DEB787
:1016100027970FB6F894DEBF0FBECDBF8D83E62EA1
:10162000F12C242F30E03C832B838901000F111F04
:10163000020F131FC80195958795959587959A83F5
:101640008983F701E81BF90BFF83EE836C01CE0C55
:10165000DF1CCE16DF060CF439C0229F3001239F19
:10166000700C700C11248C012701FD812F2E8E81AE
:101670009F8184199509089F4001099F900C189F2C
:10168000900C1124860C971C092C000CAA08BB088E
:10169000C501B401EFD27ED320E030E040E05FE34B
:1016A00057D2BAD2A62E6E81822D8A0DFFDC6E81B2
:1016B000822D8A19FBDC2E813F812F5F3F4F3F83B4
:1016C0002E8301501109C216D3068CF63D81C32E1C
:1016D000D12C160189819A81281A390AC80ED91E7F
:1016E000C214D3040CF439C0EB81FC81EE9F3001AD
:1016F000EF9F700C700C11248C01432E512CC101F2
:1017000084199509089F4001099F900C189F900C1F
:101710001124860C971C092C000CAA08BB08C501D3
:10172000B401A8D237D320E030E040E05FE310D22C
:1017300073D2A62EB12CB7016A0D7B1D822DB6DCAB
:10174000B7016A197B09822DB1DCFFEF2F1A3F0A1E
:1017500001501109C214D30494F627960FB6F894D9
:10176000DEBF0FBECDBFDF91CF911F910F91FF90D4
:10177000EF90DF90CF90BF90AF909F908F907F9031
:101780006F905F904F903F902F9008952F923F92CF
:101790004F925F926F927F928F929F92AF92BF9281
:1017A000CF92DF92EF92FF920F931F93CF93DF932D
:1017B000CDB7DEB727970FB6F894DEBF0FBECDBF0B
:1017C0008D83E62EF12C242F30E03C832B8389017E
:1017D000000F111F020F131FC8019595879595954E
:1017E00087959A838983F701E81BF90BFF83EE83C2
:1017F0006C01CE0CDF1CCE16DF060CF439C0229F24
:101800003001239F700C700C11248C012701FD8185
:101810002F2E8E819F8184199509089F4001099F71
:10182000900C189F900C1124860C971C092C000C0E
:10183000AA08BB08C501B4011DD2ACD220E030E03B
:1018400040E05FE385D1E8D1A62E6E81822D8A0D1E
:101850008DDC6E81822D8A1989DC2E813F812F5F7C
:101860003F4F3F832E8301501109C216D3068CF6D9
:101870003D81C32ED12C160189819A81281A390AFB
:10188000C80ED91EC214D3040CF439C0EB81FC81FC
:10189000EE9F3001EF9F700C700C11248C01432ED1
:1018A000512CC10184199509089F4001099F900C92
:1018B000189F900C1124860C971C092C000CAA0868
:1018C000BB08C501B401D6D165D220E030E040E0CC
:1018D0005FE33ED1A1D1A62EB12CB7016A0D7B1DCD
:1018E000822D44DCB7016A197B09822D3FDCFFEFB2
:1018F0002F1A3F0A01501109C214D30494F62796F7
:101900000FB6F894DEBF0FBECDBFDF91CF911F9110
:101910000F91FF90EF90DF90CF90BF90AF909F908E
:101920008F907F906F905F904F903F902F90089591
:101930009DEC899F912D1124969596959695990FDA
:10194000292F220F220F920F891B982F31F461113A
:1019500004C080E256DB80E0089580E3890F51DB0C
:1019600081E008950F931F93CF93DF93AC019C0107
:10197000329522952F7023273F702327A7E4B3E0E9
:10198000A8D2EC01D695C795D695C795D695C7959B
:1019900020E137E2C29FC001C39F900DD29F900DFE
:1019A0001124EA01C81BD90B9E013695279536955F
:1019B000279536952795A5ECB0E28BD28C01129530
:1019C00002950F7001271F70012760E0802FB0DFA4
:1019D000482F28EE33E0029FC001039F900D129F15
:1019E000900D1124C81BD90B9E013695279536956D
:1019F0002795ABE7B4E16DD28C0116950795642F5E
:101A0000802F96DF482F24E6209FC001219F900D54
:101A10001124C81BD90B9E01ADECBCEC5AD28C0131
:101A2000169507951695079516950795642F802F9F
:101A30007FDFC801880F991F000F111F000F111FB2
:101A4000000F111F080F191FCE01801B910B805D25
:101A5000D8DADF91CF911F910F910895F89406D0B5
:101A600017D04CD0B3D9AADA789408951BBA8FEF67
:101A70008ABB88BB87BB15BA90EF94BB90E892BB3A
:101A800091BB13B882B91092620010926100089560
:101A900015BC8AE184BD83E085BD80E487BF0895DD
:101AA0001F920F920FB60F9211242F933F938F9393
:101AB0009F938AE184BD8091FC039091FD03019680
:101AC0009093FD038093FC03209103033091040362
:101AD0008217930751F481E090E09093FB03809389
:101AE000FA031092FD031092FC039F918F913F9196
:101AF0002F910F900FBE0F901F90189510929B0082
:101B000086E080939D0088E980939A0087E0809327
:101B100099001092980008951F920F920FB60F929D
:101B200011248F93F89480919C008093FE0381335D
:101B300019F48093FF0304C0823311F48093FF03F0
:101B400078948F910F900FBE0F901F90189550585A
:101B5000BB27AA270ED0E0C0D1D030F0D6D020F0DD
:101B600031F49F3F11F41EF4C6C00EF4E095E7FB7C
:101B7000BCC0E92FE2D080F3BA176207730784076D
:101B8000950718F071F49EF5FAC00EF4E0950B2E4F
:101B9000BA2FA02D0B01B90190010C01CA01A001BF
:101BA0001124FF27591B99F0593F50F4503E68F11A
:101BB0001A16F040A22F232F342F4427585FF3CF5B
:101BC000469537952795A795F0405395C9F77EF42C
:101BD0001F16BA0B620B730B840BBAF09150A1F075
:101BE000FF0FBB1F661F771F881FC2F70EC0BA0FFB
:101BF000621F731F841F48F4879577956795B79583
:101C0000F7959E3F08F0B3CF9395880F08F099277A
:101C1000EE0F97958795089598D088F09F5790F08C
:101C2000B92F9927B751A0F0D1F0660F771F881F01
:101C3000991F1AF0BA95C9F712C0B13081F09FD040
:101C4000B1E008959CC0672F782F8827B85F39F0DE
:101C5000B93FCCF3869577956795B395D9F73EF460
:101C600090958095709561957F4F8F4F9F4F089508
:101C7000E89409C097FB3EF4909580957095619526
:101C80007F4F8F4F9F4F9923A9F0F92F96E9BB27DC
:101C90009395F695879577956795B795F111F8CF58
:101CA000FAF4BB0F11F460FF1BC06F5F7F4F8F4FC3
:101CB0009F4F16C0882311F096E911C0772321F0B9
:101CC0009EE8872F762F05C0662371F096E8862F51
:101CD00070E060E02AF09A95660F771F881FDAF7A8
:101CE000880F9695879597F9089597F99F6780E8EB
:101CF00070E060E008959FEF80EC089500240A945E
:101D00001616170618060906089500240A941216D6
:101D10001306140605060895092E0394000C11F409
:101D2000882352F0BB0F40F4BF2B11F460FF04C0B6
:101D30006F5F7F4F8F4F9F4F089557FD9058440F0F
:101D4000551F59F05F3F71F04795880F97FB991F1A
:101D500061F09F3F79F087950895121613061406D7
:101D6000551FF2CF4695F1DF08C016161706180664
:101D7000991FF1CF86957105610508940895E8943F
:101D8000BB2766277727CB0197F9089511F40EF446
:101D9000B2CF3EC0DADFD0F39923D9F3CEF39F5709
:101DA000550B87FF43D00024A0E640EA90018058FD
:101DB0005695979528F4805C660F771F881F20F052
:101DC00026173707480730F4621B730B840B202952
:101DD00031294A2BA69517940794202531254A27A7
:101DE00058F7660F771F881F20F026173707480718
:101DF00030F4620B730B840B200D311D411DA09537
:101E000081F7B901842F9158880F96958795089589
:101E10009F3F31F0915020F4879577956795B7955E
:101E2000880F911D9695879597F908959150504088
:101E3000660F771F881FD2F70895AA1BBB1B51E1BD
:101E400007C0AA1FBB1FA617B70710F0A61BB70B2A
:101E5000881F991F5A95A9F780959095BC01CD01CF
:101E6000089597FB072E16F4009406D077FD08D04E
:101E7000E4DF07FC05D03EF4909581959F4F0895CF
:101E8000709561957F4F0895052E97FB16F4009489
:101E90000FD057FD05D02CD007FC02D046F408C067
:101EA00050954095309521953F4F4F4F5F4F089586
:101EB00090958095709561957F4F8F4F9F4F0895B6
:101EC000EE0FFF1F0024001C0BBE0790F691E02DC3
:101ED0000994A29FB001B39FC001A39F700D811D03
:101EE0001124911DB29F700D811D1124911D089523
:101EF000A1E21A2EAA1BBB1BFD010DC0AA1FBB1F0E
:101F0000EE1FFF1FA217B307E407F50720F0A21B7F
:101F1000B30BE40BF50B661F771F881F991F1A94EC
:101F200069F760957095809590959B01AC01BD0116
:101F3000CF0108958F929F92AF92BF92CF92DF927E
:101F4000EF92FF92CF93DF93EC01688179818A81D0
:101F50009B81611571058105910521F464E279ED9C
:101F60008BE597E02DE133EF41E050E08DDF490153
:101F70005A019B01AC01A7EAB1E431D06B017C01AD
:101F8000ACEEB4EFA501940136D0DC01CB018C0D91
:101F90009D1DAE1DBF1DB7FF03C00197A109B0482D
:101FA00088839983AA83BB839F77DF91CF91FF902A
:101FB000EF90DF90CF90BF90AF909F908F9008955B
:101FC000B9CF80E091E0B6CFA0E0B0E0809300010F
:101FD00090930101A0930201B0930301089579DF6A
:101FE000A59F900DB49F900DA49F800D911D11246D
:101FF0000895B7FFF4CFF3DF821B930B0895F89495
:02200000FFCF10
:102002000100000000003F0039000A003B000C0004
:1020120011000A00110035000D00200002001F000F
:102022005E00210060000100000000000000004F7F
:1020320000000007000700147F147F14242A7F2A5F
:10204200122313086462364955225000050300002A
:10205200001C2241000041221C0014083E08140802
:10206200083E080800503000000808080808006010
:1020720060000020100804023E5149453E00427FA4
:10208200400042615149462141454B311814127FAB
:102092001027454545393C4A494930017109050334
:1020A2003649494936064949291E0036360000009C
:1020B200563600000814224100141414141400416E
:1020C2002214080201510906324979413E7E11115A
:1020D200117E7F494949363E414141227F41412299
:1020E2001C7F494949417F090909013E4149497A11
:1020F2007F0808087F00417F41002040413F017F67
:10210200081422417F404040407F020C027F7F043E
:1021120008107F3E4141413E7F090909063E415177
:10212200215E7F09192946264949493201017F0169
:10213200013F4040403F1F2040201F3F4038403F6A
:102142006314081463070870080761514945430086
:102152007F41410002040810200041417F00040237
:102162000102044040404040000102040020545457
:1021720054787F48444438384444442038444448DE
:102182007F3854545418087E0901020C5252523EB0
:102192007F0804047800047D00002040443D007F55
:1021A2001028440000417F40007C0418047C7C0815
:1021B20004047838444444387C1414140808141471
:1021C200187C7C080404084854545420043F4440BA
:1021D200203C4040207C1C2040201C3C4030403CA5
:1021E20044281028440C5050503C4464544C440041
:1021F200083641000000770000004136080008045C
:10220200081008F4013D3D4D554C54495441534B7F
:10221200494E473D3D0053746172742047616D65BC
:1022220000536574204C6576656C0052616E6B00DC
:102232003D3D3D3D20446566656174203D3D3D3D2B
:10224200003D3D536574204C6576656C3D3D00450F
:10225200617379004E6F726D616C00486172640047
:1022620052616E6B2031203A200052616E6B203237
:10227200203A200052616E6B2033203A20005261D6
:102282006E6B2034203A200052616E6B2035203A6A
:1022920020003C457869743D427574746F6E20501D
:1022A200726573733E0045617379204C6576656C87
:1022B2000053656C6563746564004E6F726D616C8A
:1022C200204C6576656C0048617264204C657665C9
:0222D2006C009E
:00000001FF
